{
    "_format": "hh-sol-artifact-1",
    "contractName": "TurbineInsure",
    "sourceName": "contracts/TurbineInsure.sol",
    "abi": [
        {
            "inputs": [
                {
                    "internalType": "uint256",
                    "name": "_amount",
                    "type": "uint256"
                },
                {
                    "internalType": "address",
                    "name": "_client",
                    "type": "address"
                },
                {
                    "internalType": "address",
                    "name": "_insurer",
                    "type": "address"
                },
                {
                    "internalType": "uint256",
                    "name": "_months",
                    "type": "uint256"
                },
                {
                    "internalType": "string",
                    "name": "_lat",
                    "type": "string"
                },
                {
                    "internalType": "string",
                    "name": "_lon",
                    "type": "string"
                }
            ],
            "stateMutability": "payable",
            "type": "constructor"
        },
        {
            "inputs": [],
            "name": "NotEnoughSent",
            "type": "error"
        },
        {
            "inputs": [],
            "name": "Notexpired",
            "type": "error"
        },
        {
            "anonymous": false,
            "inputs": [
                {
                    "indexed": true,
                    "internalType": "bytes32",
                    "name": "id",
                    "type": "bytes32"
                }
            ],
            "name": "ChainlinkCancelled",
            "type": "event"
        },
        {
            "anonymous": false,
            "inputs": [
                {
                    "indexed": true,
                    "internalType": "bytes32",
                    "name": "id",
                    "type": "bytes32"
                }
            ],
            "name": "ChainlinkFulfilled",
            "type": "event"
        },
        {
            "anonymous": false,
            "inputs": [
                {
                    "indexed": true,
                    "internalType": "bytes32",
                    "name": "id",
                    "type": "bytes32"
                }
            ],
            "name": "ChainlinkRequested",
            "type": "event"
        },
        {
            "inputs": [],
            "name": "ExpiryCheck",
            "outputs": [],
            "stateMutability": "nonpayable",
            "type": "function"
        },
        {
            "inputs": [],
            "name": "LINK",
            "outputs": [
                {
                    "internalType": "address",
                    "name": "",
                    "type": "address"
                }
            ],
            "stateMutability": "view",
            "type": "function"
        },
        {
            "inputs": [],
            "name": "ORACLE",
            "outputs": [
                {
                    "internalType": "address",
                    "name": "",
                    "type": "address"
                }
            ],
            "stateMutability": "view",
            "type": "function"
        },
        {
            "inputs": [],
            "name": "active",
            "outputs": [
                {
                    "internalType": "bool",
                    "name": "",
                    "type": "bool"
                }
            ],
            "stateMutability": "view",
            "type": "function"
        },
        {
            "inputs": [],
            "name": "amount",
            "outputs": [
                {
                    "internalType": "uint256",
                    "name": "",
                    "type": "uint256"
                }
            ],
            "stateMutability": "view",
            "type": "function"
        },
        {
            "inputs": [],
            "name": "checkForfeiture",
            "outputs": [],
            "stateMutability": "nonpayable",
            "type": "function"
        },
        {
            "inputs": [],
            "name": "client",
            "outputs": [
                {
                    "internalType": "address",
                    "name": "",
                    "type": "address"
                }
            ],
            "stateMutability": "view",
            "type": "function"
        },
        {
            "inputs": [],
            "name": "datetime",
            "outputs": [
                {
                    "internalType": "contract DateTime",
                    "name": "",
                    "type": "address"
                }
            ],
            "stateMutability": "view",
            "type": "function"
        },
        {
            "inputs": [],
            "name": "duration",
            "outputs": [
                {
                    "internalType": "uint256",
                    "name": "",
                    "type": "uint256"
                }
            ],
            "stateMutability": "view",
            "type": "function"
        },
        {
            "inputs": [
                {
                    "internalType": "bytes32",
                    "name": "_requestId",
                    "type": "bytes32"
                },
                {
                    "internalType": "bool",
                    "name": "_locationFound",
                    "type": "bool"
                },
                {
                    "internalType": "bytes",
                    "name": "_locationResult",
                    "type": "bytes"
                },
                {
                    "internalType": "bytes",
                    "name": "_currentConditionsResult",
                    "type": "bytes"
                }
            ],
            "name": "fulfillLocationCurrentConditions",
            "outputs": [],
            "stateMutability": "nonpayable",
            "type": "function"
        },
        {
            "inputs": [],
            "name": "getOracleAddress",
            "outputs": [
                {
                    "internalType": "address",
                    "name": "",
                    "type": "address"
                }
            ],
            "stateMutability": "view",
            "type": "function"
        },
        {
            "inputs": [],
            "name": "insurer",
            "outputs": [
                {
                    "internalType": "address",
                    "name": "",
                    "type": "address"
                }
            ],
            "stateMutability": "view",
            "type": "function"
        },
        {
            "inputs": [],
            "name": "lat",
            "outputs": [
                {
                    "internalType": "string",
                    "name": "",
                    "type": "string"
                }
            ],
            "stateMutability": "view",
            "type": "function"
        },
        {
            "inputs": [],
            "name": "lon",
            "outputs": [
                {
                    "internalType": "string",
                    "name": "",
                    "type": "string"
                }
            ],
            "stateMutability": "view",
            "type": "function"
        },
        {
            "inputs": [],
            "name": "months",
            "outputs": [
                {
                    "internalType": "uint256",
                    "name": "",
                    "type": "uint256"
                }
            ],
            "stateMutability": "view",
            "type": "function"
        },
        {
            "inputs": [],
            "name": "payPremium",
            "outputs": [],
            "stateMutability": "payable",
            "type": "function"
        },
        {
            "inputs": [],
            "name": "premium",
            "outputs": [
                {
                    "internalType": "uint256",
                    "name": "",
                    "type": "uint256"
                }
            ],
            "stateMutability": "view",
            "type": "function"
        },
        {
            "inputs": [],
            "name": "premiumCounter",
            "outputs": [
                {
                    "internalType": "uint8",
                    "name": "",
                    "type": "uint8"
                }
            ],
            "stateMutability": "view",
            "type": "function"
        },
        {
            "inputs": [],
            "name": "recentRequestId",
            "outputs": [
                {
                    "internalType": "bytes32",
                    "name": "",
                    "type": "bytes32"
                }
            ],
            "stateMutability": "view",
            "type": "function"
        },
        {
            "inputs": [],
            "name": "recentRequestIdCounter",
            "outputs": [
                {
                    "internalType": "uint16",
                    "name": "",
                    "type": "uint16"
                }
            ],
            "stateMutability": "view",
            "type": "function"
        },
        {
            "inputs": [],
            "name": "recentWindSpeed",
            "outputs": [
                {
                    "internalType": "uint16",
                    "name": "",
                    "type": "uint16"
                }
            ],
            "stateMutability": "view",
            "type": "function"
        },
        {
            "inputs": [],
            "name": "requestCount",
            "outputs": [
                {
                    "internalType": "uint256",
                    "name": "",
                    "type": "uint256"
                }
            ],
            "stateMutability": "view",
            "type": "function"
        },
        {
            "inputs": [
                {
                    "internalType": "bytes32",
                    "name": "",
                    "type": "bytes32"
                }
            ],
            "name": "requestIdCurrentConditionsResult",
            "outputs": [
                {
                    "internalType": "uint256",
                    "name": "timestamp",
                    "type": "uint256"
                },
                {
                    "internalType": "uint24",
                    "name": "precipitationPast12Hours",
                    "type": "uint24"
                },
                {
                    "internalType": "uint24",
                    "name": "precipitationPast24Hours",
                    "type": "uint24"
                },
                {
                    "internalType": "uint24",
                    "name": "precipitationPastHour",
                    "type": "uint24"
                },
                {
                    "internalType": "uint24",
                    "name": "pressure",
                    "type": "uint24"
                },
                {
                    "internalType": "int16",
                    "name": "temperature",
                    "type": "int16"
                },
                {
                    "internalType": "uint16",
                    "name": "windDirectionDegrees",
                    "type": "uint16"
                },
                {
                    "internalType": "uint16",
                    "name": "windSpeed",
                    "type": "uint16"
                },
                {
                    "internalType": "uint8",
                    "name": "precipitationType",
                    "type": "uint8"
                },
                {
                    "internalType": "uint8",
                    "name": "relativeHumidity",
                    "type": "uint8"
                },
                {
                    "internalType": "uint8",
                    "name": "uvIndex",
                    "type": "uint8"
                },
                {
                    "internalType": "uint8",
                    "name": "weatherIcon",
                    "type": "uint8"
                }
            ],
            "stateMutability": "view",
            "type": "function"
        },
        {
            "inputs": [],
            "name": "requestIdUpdated",
            "outputs": [
                {
                    "internalType": "bool",
                    "name": "",
                    "type": "bool"
                }
            ],
            "stateMutability": "view",
            "type": "function"
        },
        {
            "inputs": [],
            "name": "toCheckWind",
            "outputs": [
                {
                    "internalType": "uint256",
                    "name": "initWindSpeedTimestamp",
                    "type": "uint256"
                },
                {
                    "internalType": "uint256",
                    "name": "haltWindSpeedTimestamp",
                    "type": "uint256"
                },
                {
                    "internalType": "uint8",
                    "name": "timesChecked",
                    "type": "uint8"
                },
                {
                    "internalType": "bool",
                    "name": "recently",
                    "type": "bool"
                }
            ],
            "stateMutability": "view",
            "type": "function"
        },
        {
            "inputs": [
                {
                    "internalType": "uint256",
                    "name": "",
                    "type": "uint256"
                }
            ],
            "name": "uintToRequestID",
            "outputs": [
                {
                    "internalType": "bytes32",
                    "name": "",
                    "type": "bytes32"
                }
            ],
            "stateMutability": "view",
            "type": "function"
        },
        {
            "inputs": [],
            "name": "updatestate",
            "outputs": [],
            "stateMutability": "nonpayable",
            "type": "function"
        },
        {
            "inputs": [],
            "name": "withdrawLink",
            "outputs": [],
            "stateMutability": "nonpayable",
            "type": "function"
        }
    ],
    "bytecode": "0x61012060405260016004556000805160206200331a8339815191526007556040516200333a3803806200333a8339810160408190526200003f916200038b565b85341015620000875760405162461bcd60e51b815260206004820152601060248201526f02737ba1032b737bab3b41039b2b73a160851b604482015260640160405180910390fd5b6001600160601b0319606085811b821660805286901b1660a05262015180620000b284601e6200044b565b620000be91906200044b565b60e05260068390558151620000db90600890602085019062000207565b508051620000f190600990602084019062000207565b50826103e8620001038860056200044b565b6200010f91906200042a565b6200011b91906200044b565b6101005242600a5560c0869052600280546001600160a01b03191673326c977e6efc84e512bb9c30f76e30c160ed06fb179055600380546001600160a01b03191673b9756312523826a566e222a34793e414a81c88e11790556000805160206200331a83398151915260075567016345785d8a0000600b55604051620001a19062000296565b604051809103906000f080158015620001be573d6000803e3d6000fd5b50600c80546001600160a81b0319166001600160a01b039290921691909117600160a01b1790555050600e805460ff9290921660ff1990921691909117905550620004ca915050565b828054620002159062000477565b90600052602060002090601f01602090048101928262000239576000855562000284565b82601f106200025457805160ff191683800117855562000284565b8280016001018555821562000284579182015b828111156200028457825182559160200191906001019062000267565b5062000292929150620002a4565b5090565b610cdc806200263e83390190565b5b80821115620002925760008155600101620002a5565b80516001600160a01b0381168114620002d357600080fd5b919050565b600082601f830112620002e9578081fd5b81516001600160401b0380821115620003065762000306620004b4565b604051601f8301601f19908116603f01168101908282118183101715620003315762000331620004b4565b816040528381526020925086838588010111156200034d578485fd5b8491505b8382101562000370578582018301518183018401529082019062000351565b838211156200038157848385830101525b9695505050505050565b60008060008060008060c08789031215620003a4578182fd5b86519550620003b660208801620002bb565b9450620003c660408801620002bb565b6060880151608089015191955093506001600160401b0380821115620003ea578384fd5b620003f88a838b01620002d8565b935060a08901519150808211156200040e578283fd5b506200041d89828a01620002d8565b9150509295509295509295565b6000826200044657634e487b7160e01b81526012600452602481fd5b500490565b60008160001904831182151516156200047257634e487b7160e01b81526011600452602481fd5b500290565b600181811c908216806200048c57607f821691505b60208210811415620004ae57634e487b7160e01b600052602260045260246000fd5b50919050565b634e487b7160e01b600052604160045260246000fd5b60805160601c60a05160601c60c05160e051610100516120dc62000562600039600081816106b1015281816106d5015261104e0152600081816102040152818161090d0152610f8b0152600081816105d901526114d80152600081816102460152818161101e01526114b501526000818161067d0152818161097b01528181610fce015281816110b8015261111e01526120dc6000f3fe6080604052600436106101b75760003560e01c806363dcdafc116100ec578063aeef8f361161008a578063d608f04611610064578063d608f0461461063b578063d7872e8114610656578063dbc837c51461066b578063e0a73a931461069f57600080fd5b8063aeef8f36146105fb578063b18b78dd14610611578063b70dd6531461062657600080fd5b80638dc654a2116100c65780638dc654a214610530578063a0769e2a14610545578063a834caca1461059b578063aa8c217c146105c757600080fd5b806363dcdafc146104d357806376d1b0a81461050057806378708e101461051a57600080fd5b806338013f02116101595780634e5d3ed3116101335780634e5d3ed3146104605780635425bc921461049357806355d576cc146104a85780635badbe4c146104bd57600080fd5b806338013f02146103f657806340d5605a1461041e5780634dee73c81461043e57600080fd5b80631b6b6d23116101955780631b6b6d231461028057806329c08ba2146102a8578063371eaced146102b257806337b95e86146102d257600080fd5b806302fb0c5e146101bc5780630fb5a6b4146101f2578063109e94cf14610234575b600080fd5b3480156101c857600080fd5b50600c546101dd90600160a01b900460ff1681565b60405190151581526020015b60405180910390f35b3480156101fe57600080fd5b506102267f000000000000000000000000000000000000000000000000000000000000000081565b6040519081526020016101e9565b34801561024057600080fd5b506102687f000000000000000000000000000000000000000000000000000000000000000081565b6040516001600160a01b0390911681526020016101e9565b34801561028c57600080fd5b5061026873326c977e6efc84e512bb9c30f76e30c160ed06fb81565b6102b06106d3565b005b3480156102be57600080fd5b506102b06102cd366004611baf565b610746565b3480156102de57600080fd5b506103816102ed366004611b97565b60166020526000908152604090208054600191820154909162ffffff808316926301000000810482169266010000000000008204831692690100000000000000000083041691600160601b810490910b9061ffff600160701b8204811691600160801b81049091169060ff600160901b8204811691600160981b8104821691600160a01b8204811691600160a81b9004168c565b604080519c8d5262ffffff9b8c1660208e0152998b16998c019990995296891660608b015294909716608089015260019290920b60a088015261ffff90811660c08801521660e086015260ff9384166101008601528316610120850152821661014084015216610160820152610180016101e9565b34801561040257600080fd5b5061026873b9756312523826a566e222a34793e414a81c88e181565b34801561042a57600080fd5b50600c54610268906001600160a01b031681565b34801561044a57600080fd5b5061045361087d565b6040516101e99190611e02565b34801561046c57600080fd5b50600e5461048090610100900461ffff1681565b60405161ffff90911681526020016101e9565b34801561049f57600080fd5b506102b061090b565b3480156104b457600080fd5b50610453610963565b3480156104c957600080fd5b50610226600d5481565b3480156104df57600080fd5b506102266104ee366004611b97565b60156020526000908152604090205481565b34801561050c57600080fd5b506010546101dd9060ff1681565b34801561052657600080fd5b50610226600f5481565b34801561053c57600080fd5b506102b0610970565b34801561055157600080fd5b5060115460125460135461057092919060ff8082169161010090041684565b6040516101e99493929190938452602084019290925260ff1660408301521515606082015260800190565b3480156105a757600080fd5b50600e546105b59060ff1681565b60405160ff90911681526020016101e9565b3480156105d357600080fd5b506102267f000000000000000000000000000000000000000000000000000000000000000081565b34801561060757600080fd5b5061022660065481565b34801561061d57600080fd5b50610268610b3a565b34801561063257600080fd5b506102b0610b53565b34801561064757600080fd5b506014546104809061ffff1681565b34801561066257600080fd5b506102b0610bcc565b34801561067757600080fd5b506102687f000000000000000000000000000000000000000000000000000000000000000081565b3480156106ab57600080fd5b506102267f000000000000000000000000000000000000000000000000000000000000000081565b7f00000000000000000000000000000000000000000000000000000000000000003414610713576040516325265db160e11b815260040160405180910390fd5b600e80546001919060009061072c90849060ff16611fb1565b92506101000a81548160ff021916908360ff160217905550565b60008481526005602052604090205484906001600160a01b031633146107c45760405162461bcd60e51b815260206004820152602860248201527f536f75726365206d75737420626520746865206f7261636c65206f6620746865604482015267081c995c5d595cdd60c21b60648201526084015b60405180910390fd5b60008181526005602052604080822080546001600160a01b03191690555182917f7cc135e0cebb02c3480ae5d74d377283180a2601f8f644edf7987b009316c63a91a261080f610b3a565b6001600160a01b0316336001600160a01b0316146108665760405162461bcd60e51b815260206004820152601460248201527313db9b1e4813dc9858db194818d85b8818d85b1b60621b60448201526064016107bb565b8315610876576108768583610d1b565b5050505050565b6009805461088a90611feb565b80601f01602080910402602001604051908101604052809291908181526020018280546108b690611feb565b80156109035780601f106108d857610100808354040283529160200191610903565b820191906000526020600020905b8154815290600101906020018083116108e657829003601f168201915b505050505081565b7f0000000000000000000000000000000000000000000000000000000000000000600a546109399190611e3f565b4210156109595760405163760b7bb960e01b815260040160405180910390fd5b610961610f3a565b565b6008805461088a90611feb565b336001600160a01b037f000000000000000000000000000000000000000000000000000000000000000016146109e05760405162461bcd60e51b815260206004820152601560248201527413db9b1e481a5b9cdd5c995c8818d85b8818d85b1b605a1b60448201526064016107bb565b60006109f46002546001600160a01b031690565b6040516370a0823160e01b81523060048201529091506001600160a01b0382169063a9059cbb90339083906370a082319060240160206040518083038186803b158015610a4057600080fd5b505afa158015610a54573d6000803e3d6000fd5b505050506040513d601f19601f82011682018060405250810190610a789190611d10565b6040516001600160e01b031960e085901b1681526001600160a01b0390921660048301526024820152604401602060405180830381600087803b158015610abe57600080fd5b505af1158015610ad2573d6000803e3d6000fd5b505050506040513d601f19601f82011682018060405250810190610af69190611b74565b610b375760405162461bcd60e51b81526020600482015260126024820152712ab730b13632903a37903a3930b739b332b960711b60448201526064016107bb565b50565b6000610b4e6003546001600160a01b031690565b905090565b600e5460065460ff909116904290805b8015610bc657600a54610b7783601e611f7b565b610b849062015180611f7b565b610b8e9190611e3f565b83118015610ba75750610ba18183611f9a565b8460ff16115b15610bb457610bb4611111565b80610bbe81611fd4565b915050610b63565b50505050565b6010805460ff19169055600b5460088054610961929190610bec90611feb565b80601f0160208091040260200160405190810160405280929190818152602001828054610c1890611feb565b8015610c655780601f10610c3a57610100808354040283529160200191610c65565b820191906000526020600020905b815481529060010190602001808311610c4857829003601f168201915b505050505060098054610c7790611feb565b80601f0160208091040260200160405190810160405280929190818152602001828054610ca390611feb565b8015610cf05780601f10610cc557610100808354040283529160200191610cf0565b820191906000526020600020905b815481529060010190602001808311610cd357829003601f168201915b5050505050604051806040016040528060088152602001671a5b5c195c9a585b60c21b815250611166565b600081806020019051810190610d319190611c2c565b905080601660008581526020019081526020016000206000820151816000015560208201518160010160006101000a81548162ffffff021916908362ffffff16021790555060408201518160010160036101000a81548162ffffff021916908362ffffff16021790555060608201518160010160066101000a81548162ffffff021916908362ffffff16021790555060808201518160010160096101000a81548162ffffff021916908362ffffff16021790555060a082015181600101600c6101000a81548161ffff021916908360010b61ffff16021790555060c082015181600101600e6101000a81548161ffff021916908361ffff16021790555060e08201518160010160106101000a81548161ffff021916908361ffff1602179055506101008201518160010160126101000a81548160ff021916908360ff1602179055506101208201518160010160136101000a81548160ff021916908360ff1602179055506101408201518160010160146101000a81548160ff021916908360ff1602179055506101608201518160010160156101000a81548160ff021916908360ff1602179055509050506001600d6000828254610eef9190611e3f565b909155505060e0810151600e805462ffff00191661010061ffff938416810291909117918290556010805460ff191660011790558351610f35939092919091041661126d565b505050565b600c54600160a01b900460ff16610f805760405162461bcd60e51b815260206004820152600a6024820152694e6f742061637469766560b01b60448201526064016107bb565b6001610faf620151807f0000000000000000000000000000000000000000000000000000000000000000611e7c565b610fb99190611f9a565b600d541061101c576040516001600160a01b037f000000000000000000000000000000000000000000000000000000000000000016904780156108fc02916000818181858888f19350505050158015611016573d6000803e3d6000fd5b50611102565b7f00000000000000000000000000000000000000000000000000000000000000006001600160a01b03166108fc6006547f00000000000000000000000000000000000000000000000000000000000000006110779190611f7b565b611082906002611f7b565b6040518115909202916000818181858888f193505050501580156110aa573d6000803e3d6000fd5b506040516001600160a01b037f000000000000000000000000000000000000000000000000000000000000000016904780156108fc02916000818181858888f19350505050158015611100573d6000803e3d6000fd5b505b600c805460ff60a01b19169055565b6040516001600160a01b037f000000000000000000000000000000000000000000000000000000000000000016904780156108fc02916000818181858888f19350505050158015610b37573d6000803e3d6000fd5b600061119a7f37633237363938366532336234623163393930643836353962636137613964303063371eaced60e01b6112e6565b6040805180820190915260038152621b185d60ea1b60208201529091506111c39082908661130b565b6040805180820190915260038152623637b760e91b60208201526111e99082908561130b565b604080518082019091526005815264756e69747360d81b60208201526112119082908461130b565b61121b8186611329565b600f556014805461ffff1690600061123283612020565b82546101009290920a61ffff818102199093169183160217909155600f54601454909116600090815260156020526040902055505050505050565b600f8110156112d5576013805461ff001981166101001782556001919060009061129b90849060ff16611e57565b82546101009290920a60ff818102199093169183160217909155601284905560135460049116111590506112d1576112d161134c565b5050565b506013805461ffff19169055601155565b6112ee611a65565b6112f6611a65565b61130281868686611372565b95945050505050565b608083015161131a90836113b8565b6080830151610f3590826113b8565b600354600090611343906001600160a01b031684846113cf565b90505b92915050565b60115460125460009161135e91611f9a565b9050615460811115610b3757610b37611462565b61137a611a65565b61138a856080015161010061151d565b50508284526001600160a01b03821660208501526001600160e01b031981166040850152835b949350505050565b6113c58260038351611582565b610f358282611691565b6004546000906113e0816001611e3f565b600455835160408086015160808701515191516000936320214ca360e11b936114189386938493923092918a91600191602401611d73565b60408051601f198184030181529190526020810180516001600160e01b03166001600160e01b0319909316929092179091529050611458868386846116b8565b9695505050505050565b600c54600160a01b900460ff166114a85760405162461bcd60e51b815260206004820152600a6024820152694e6f742061637469766560b01b60448201526064016107bb565b6040516001600160a01b037f000000000000000000000000000000000000000000000000000000000000000016907f000000000000000000000000000000000000000000000000000000000000000080156108fc02916000818181858888f193505050501580156110aa573d6000803e3d6000fd5b60408051808201909152606081526000602082015261153d602083612042565b156115655761154d602083612042565b611558906020611f9a565b6115629083611e3f565b91505b506020828101829052604080518085526000815290920101905290565b60178167ffffffffffffffff16116115a757610bc68360e0600585901b168317611825565b60ff8167ffffffffffffffff16116115e5576115ce836018611fe0600586901b1617611825565b50610bc68367ffffffffffffffff8316600161184a565b61ffff8167ffffffffffffffff16116116245761160d836019611fe0600586901b1617611825565b50610bc68367ffffffffffffffff8316600261184a565b63ffffffff8167ffffffffffffffff16116116655761164e83601a611fe0600586901b1617611825565b50610bc68367ffffffffffffffff8316600461184a565b61167a83601b611fe0600586901b1617611825565b50610bc68367ffffffffffffffff8316600861184a565b60408051808201909152606081526000602082015261134383846000015151848551611870565b6040516bffffffffffffffffffffffff193060601b1660208201526034810184905260009060540160408051808303601f1901815282825280516020918201206000818152600590925291812080546001600160a01b0319166001600160a01b038a1617905590925082917fb5e6e01e79f91267dc17b4e6314d5d4d03593d2ceee0fbb452b750bd70ea5af99190a2600254604051630200057560e51b81526001600160a01b0390911690634000aea09061177b90889087908790600401611ddb565b602060405180830381600087803b15801561179557600080fd5b505af11580156117a9573d6000803e3d6000fd5b505050506040513d601f19601f820116820180604052508101906117cd9190611b74565b6113b05760405162461bcd60e51b815260206004820152602360248201527f756e61626c6520746f207472616e73666572416e6443616c6c20746f206f7261604482015262636c6560e81b60648201526084016107bb565b604080518082019091526060815260006020820152611343838460000151518461195a565b6040805180820190915260608152600060208201526113b08485600001515185856119b6565b604080518082019091526060815260006020820152825182111561189357600080fd5b60208501516118a28386611e3f565b11156118d5576118d5856118c5876020015187866118c09190611e3f565b611a37565b6118d0906002611f7b565b611a4e565b6000808651805187602083010193508088870111156118f45787860182525b505050602084015b602084106119345780518252611913602083611e3f565b9150611920602082611e3f565b905061192d602085611f9a565b93506118fc565b51815160001960208690036101000a019081169019919091161790525083949350505050565b6040805180820190915260608152600060208201528360200151831061198f5761198f84856020015160026118d09190611f7b565b8351805160208583010184815350808514156119ac576001810182525b5093949350505050565b60408051808201909152606081526000602082015260208501516119da8584611e3f565b11156119ee576119ee856118c58685611e3f565b600060016119fe84610100611ed3565b611a089190611f9a565b9050855183868201018583198251161781525080518487011115611a2c5783860181525b509495945050505050565b600081831115611a48575081611346565b50919050565b8151611a5a838361151d565b50610bc68382611691565b6040805160a0810182526000808252602080830182905282840182905260608084018390528451808601909552845283015290608082015290565b600082601f830112611ab0578081fd5b813567ffffffffffffffff80821115611acb57611acb612082565b604051601f8301601f19908116603f01168101908282118183101715611af357611af3612082565b81604052838152866020858801011115611b0b578485fd5b8360208701602083013792830160200193909352509392505050565b8051600181900b8114611b3957600080fd5b919050565b805161ffff81168114611b3957600080fd5b805162ffffff81168114611b3957600080fd5b805160ff81168114611b3957600080fd5b600060208284031215611b85578081fd5b8151611b9081612098565b9392505050565b600060208284031215611ba8578081fd5b5035919050565b60008060008060808587031215611bc4578283fd5b843593506020850135611bd681612098565b9250604085013567ffffffffffffffff80821115611bf2578384fd5b611bfe88838901611aa0565b93506060870135915080821115611c13578283fd5b50611c2087828801611aa0565b91505092959194509250565b60006101808284031215611c3e578081fd5b611c46611e15565b82518152611c5660208401611b50565b6020820152611c6760408401611b50565b6040820152611c7860608401611b50565b6060820152611c8960808401611b50565b6080820152611c9a60a08401611b27565b60a0820152611cab60c08401611b3e565b60c0820152611cbc60e08401611b3e565b60e0820152610100611ccf818501611b63565b90820152610120611ce1848201611b63565b90820152610140611cf3848201611b63565b90820152610160611d05848201611b63565b908201529392505050565b600060208284031215611d21578081fd5b5051919050565b60008151808452815b81811015611d4d57602081850181015186830182015201611d31565b81811115611d5e5782602083870101525b50601f01601f19169290920160200192915050565b6001600160a01b0389811682526020820189905260408201889052861660608201526001600160e01b03198516608082015260a0810184905260c0810183905261010060e08201819052600090611dcc83820185611d28565b9b9a5050505050505050505050565b60018060a01b03841681528260208201526060604082015260006113026060830184611d28565b6020815260006113436020830184611d28565b604051610180810167ffffffffffffffff81118282101715611e3957611e39612082565b60405290565b60008219821115611e5257611e52612056565b500190565b600060ff821660ff84168060ff03821115611e7457611e74612056565b019392505050565b600082611e8b57611e8b61206c565b500490565b600181815b80851115611ecb578160001904821115611eb157611eb1612056565b80851615611ebe57918102915b93841c9390800290611e95565b509250929050565b60006113438383600082611ee957506001611346565b81611ef657506000611346565b8160018114611f0c5760028114611f1657611f32565b6001915050611346565b60ff841115611f2757611f27612056565b50506001821b611346565b5060208310610133831016604e8410600b8410161715611f55575081810a611346565b611f5f8383611e90565b8060001904821115611f7357611f73612056565b029392505050565b6000816000190483118215151615611f9557611f95612056565b500290565b600082821015611fac57611fac612056565b500390565b600060ff821660ff841680821015611fcb57611fcb612056565b90039392505050565b600081611fe357611fe3612056565b506000190190565b600181811c90821680611fff57607f821691505b60208210811415611a4857634e487b7160e01b600052602260045260246000fd5b600061ffff8083168181141561203857612038612056565b6001019392505050565b6000826120515761205161206c565b500690565b634e487b7160e01b600052601160045260246000fd5b634e487b7160e01b600052601260045260246000fd5b634e487b7160e01b600052604160045260246000fd5b8015158114610b3757600080fdfea26469706673582212205147f7687c04765ac14190499945ed10727fa7325f0313aa4c3089e5f2d23abb64736f6c63430008040033608060405234801561001057600080fd5b50610cbc806100206000396000f3fe608060405234801561001057600080fd5b50600436106100ea5760003560e01c80639054bdec1161008c578063a6f0e57711610066578063a6f0e577146101e5578063b199993714610208578063b238ad0e1461021b578063fa93f8831461022e57600080fd5b80639054bdec1461019957806392d66313146101ac578063a324ad24146101d257600080fd5b806365c72840116100c857806365c728401461014d5780637f791833146101605780638aa001fc146101735780638c8d98a01461018657600080fd5b80633e239e1a146100ef5780634ac1ad781461011957806362ba96871461012c575b600080fd5b6101026100fd366004610af1565b610241565b60405160ff90911681526020015b60405180910390f35b610102610127366004610af1565b61026b565b61013f61013a366004610a1a565b610287565b604051908152602001610110565b61010261015b366004610af1565b6102a2565b61013f61016e3660046109c7565b6102b7565b610102610181366004610af1565b6102d1565b61013f610194366004610985565b6102de565b61013f6101a7366004610a7e565b6102f8565b6101bf6101ba366004610af1565b6104b7565b60405161ffff9091168152602001610110565b6101026101e0366004610af1565b6105a7565b6101f86101f3366004610964565b6105bc565b6040519015158152602001610110565b61013f610216366004610af1565b61061b565b610102610229366004610b09565b610660565b61010261023c366004610af1565b610727565b60006018603c6102518185610b53565b61025b9190610b53565b6102659190610c46565b92915050565b6000600761027c6201518084610b53565b61025b906004610b3b565b6000610298868686868660006102f8565b9695505050505050565b60006102ad82610735565b6040015192915050565b60006102c8858585856000806102f8565b95945050505050565b6000610265603c83610c46565b60006102f084848460008060006102f8565b949350505050565b60006107b25b8761ffff168161ffff16101561035457610317816105bc565b156103315761032a6301e2850083610b3b565b9150610342565b61033f6301e1338083610b3b565b91505b8061034c81610be3565b9150506102fe565b61035c61091d565b601f8152610369896105bc565b1561037a57601d6020820152610382565b601c60208201525b601f60408201819052601e606083018190526080830182905260a0830181905260c0830182905260e0830182905261010083018190526101208301829052610140830152610160820152600191505b8760ff168261ffff16101561044157806103ec600184610b86565b61ffff16600c811061040e57634e487b7160e01b600052603260045260246000fd5b60200201516104239060ff1662015180610b67565b61042d9084610b3b565b92508161043981610be3565b9250506103d1565b61044c600188610bc0565b61045c9060ff1662015180610b67565b6104669084610b3b565b925061047760ff8716610e10610b67565b6104819084610b3b565b925061049160ff8616603c610b67565b61049b9084610b3b565b92506104aa60ff851684610b3b565b9998505050505050505050565b60008080806104ca6301e1338086610b53565b6104d6906107b2610b3b565b91506104e36107b261061b565b6104f08361ffff1661061b565b6104fa9190610ba9565b905061050a816301e28500610b67565b6105149084610b3b565b9250806105236107b284610b86565b61ffff166105319190610ba9565b61053f906301e13380610b67565b6105499084610b3b565b92505b8483111561059f576105626101f3600184610b86565b1561057c576105756301e2850084610ba9565b925061058d565b61058a6301e1338084610ba9565b92505b610598600183610b86565b915061054c565b509392505050565b60006105b282610735565b6020015192915050565b60006105c9600483610c25565b61ffff16156105da57506000919050565b6105e5606483610c25565b61ffff16156105f657506001919050565b61060261019083610c25565b61ffff161561061357506000919050565b506001919050565b6000610628600183610ba9565b915061063661019083610b53565b610641606484610b53565b61064c600485610b53565b6106569190610ba9565b6102659190610b3b565b60008260ff166001148061067757508260ff166003145b8061068557508260ff166005145b8061069357508260ff166007145b806106a157508260ff166008145b806106af57508260ff16600a145b806106bd57508260ff16600c145b156106ca5750601f610265565b8260ff16600414806106df57508260ff166006145b806106ed57508260ff166009145b806106fb57508260ff16600b145b156107085750601e610265565b610711826105bc565b1561071e5750601d610265565b50601c92915050565b6000603c61025b8184610b53565b6040805160e081018252600080825260208201819052918101829052606081018290526080810182905260a0810182905260c08101829052908080610779856104b7565b61ffff16845261078a6107b261061b565b84516107999061ffff1661061b565b6107a39190610ba9565b91506107b3826301e28500610b67565b6107bd9084610b3b565b9250816107b285600001516107d29190610b86565b61ffff166107e09190610ba9565b6107ee906301e13380610b67565b6107f89084610b3b565b92506000600191505b600c8260ff16116108695761081a828660000151610660565b61082a9060ff1662015180610b67565b9050856108378583610b3b565b111561084b5760ff82166020860152610869565b6108558185610b3b565b93508161086181610c05565b925050610801565b600191505b61088085602001518660000151610660565b60ff168260ff16116108cf578561089a8562015180610b3b565b11156108ae5760ff821660408601526108cf565b6108bb6201518085610b3b565b9350816108c781610c05565b92505061086e565b6108d886610241565b60ff1660608601526108e986610727565b60ff1660808601526108fa866102d1565b60ff1660a086015261090b8661026b565b60ff1660c08601525092949350505050565b604051806101800160405280600c906020820280368337509192915050565b803561ffff8116811461094e57600080fd5b919050565b803560ff8116811461094e57600080fd5b600060208284031215610975578081fd5b61097e8261093c565b9392505050565b600080600060608486031215610999578182fd5b6109a28461093c565b92506109b060208501610953565b91506109be60408501610953565b90509250925092565b600080600080608085870312156109dc578081fd5b6109e58561093c565b93506109f360208601610953565b9250610a0160408601610953565b9150610a0f60608601610953565b905092959194509250565b600080600080600060a08688031215610a31578081fd5b610a3a8661093c565b9450610a4860208701610953565b9350610a5660408701610953565b9250610a6460608701610953565b9150610a7260808701610953565b90509295509295909350565b60008060008060008060c08789031215610a96578081fd5b610a9f8761093c565b9550610aad60208801610953565b9450610abb60408801610953565b9350610ac960608801610953565b9250610ad760808801610953565b9150610ae560a08801610953565b90509295509295509295565b600060208284031215610b02578081fd5b5035919050565b60008060408385031215610b1b578182fd5b610b2483610953565b9150610b326020840161093c565b90509250929050565b60008219821115610b4e57610b4e610c5a565b500190565b600082610b6257610b62610c70565b500490565b6000816000190483118215151615610b8157610b81610c5a565b500290565b600061ffff83811690831681811015610ba157610ba1610c5a565b039392505050565b600082821015610bbb57610bbb610c5a565b500390565b600060ff821660ff841680821015610bda57610bda610c5a565b90039392505050565b600061ffff80831681811415610bfb57610bfb610c5a565b6001019392505050565b600060ff821660ff811415610c1c57610c1c610c5a565b60010192915050565b600061ffff80841680610c3a57610c3a610c70565b92169190910692915050565b600082610c5557610c55610c70565b500690565b634e487b7160e01b600052601160045260246000fd5b634e487b7160e01b600052601260045260246000fdfea2646970667358221220c63f3b3a09458ac19dc81271e2f02e0e80bb4796b4716f592ceb4e67d04904e064736f6c634300080400333763323736393836653233623462316339393064383635396263613761396430",
    "linkReferences": {},
    "deployedLinkReferences": {}
}